{
  "contractName": "Gamble",
  "abi": [
    {
      "inputs": [
        {
          "internalType": "uint256",
          "name": "_slot",
          "type": "uint256"
        }
      ],
      "stateMutability": "nonpayable",
      "type": "constructor"
    },
    {
      "inputs": [],
      "name": "ended",
      "outputs": [
        {
          "internalType": "bool",
          "name": "",
          "type": "bool"
        }
      ],
      "stateMutability": "view",
      "type": "function",
      "constant": true
    },
    {
      "inputs": [],
      "name": "open",
      "outputs": [
        {
          "internalType": "bool",
          "name": "",
          "type": "bool"
        }
      ],
      "stateMutability": "view",
      "type": "function",
      "constant": true
    },
    {
      "inputs": [],
      "name": "owner",
      "outputs": [
        {
          "internalType": "address",
          "name": "",
          "type": "address"
        }
      ],
      "stateMutability": "view",
      "type": "function",
      "constant": true
    },
    {
      "inputs": [],
      "name": "winner",
      "outputs": [
        {
          "internalType": "uint256",
          "name": "",
          "type": "uint256"
        }
      ],
      "stateMutability": "view",
      "type": "function",
      "constant": true
    },
    {
      "inputs": [
        {
          "internalType": "uint256",
          "name": "team_id",
          "type": "uint256"
        }
      ],
      "name": "Attend",
      "outputs": [],
      "stateMutability": "payable",
      "type": "function",
      "payable": true
    },
    {
      "inputs": [],
      "name": "viewTeam",
      "outputs": [
        {
          "internalType": "uint256",
          "name": "",
          "type": "uint256"
        }
      ],
      "stateMutability": "view",
      "type": "function",
      "constant": true
    },
    {
      "inputs": [],
      "name": "OpenGame",
      "outputs": [],
      "stateMutability": "nonpayable",
      "type": "function"
    },
    {
      "inputs": [],
      "name": "CloseGame",
      "outputs": [],
      "stateMutability": "nonpayable",
      "type": "function"
    },
    {
      "inputs": [],
      "name": "EndGame",
      "outputs": [],
      "stateMutability": "nonpayable",
      "type": "function"
    },
    {
      "inputs": [],
      "name": "WithdrawFund",
      "outputs": [],
      "stateMutability": "payable",
      "type": "function",
      "payable": true
    }
  ],
  "bytecode": "0x608060405260008060146101000a81548160ff02191690831515021790555060008060156101000a81548160ff02191690831515021790555060006006553480156200004a57600080fd5b5060405162001483380380620014838339818101604052810190620000709190620001e9565b336000806101000a81548173ffffffffffffffffffffffffffffffffffffffff021916908373ffffffffffffffffffffffffffffffffffffffff16021790555060006001819055505b600360015410156200018857620000cf6200018f565b6040518060400160405280600a81526020017f72616e646f6d6e616d6500000000000000000000000000000000000000000000815250816000018190525081816020018181525050600381908060018154018082558091505060019003906000526020600020906002020160009091909190915060008201518160000190816200015a91906200048b565b5060208201518160010155505050600160008154809291906200017d90620005a1565b9190505550620000b9565b50620005ee565b604051806040016040528060608152602001600081525090565b600080fd5b6000819050919050565b620001c381620001ae565b8114620001cf57600080fd5b50565b600081519050620001e381620001b8565b92915050565b600060208284031215620002025762000201620001a9565b5b60006200021284828501620001d2565b91505092915050565b600081519050919050565b7f4e487b7100000000000000000000000000000000000000000000000000000000600052604160045260246000fd5b7f4e487b7100000000000000000000000000000000000000000000000000000000600052602260045260246000fd5b600060028204905060018216806200029d57607f821691505b602082108103620002b357620002b262000255565b5b50919050565b60008190508160005260206000209050919050565b60006020601f8301049050919050565b600082821b905092915050565b6000600883026200031d7fffffffffffffffffffffffffffffffffffffffffffffffffffffffffffffffff82620002de565b620003298683620002de565b95508019841693508086168417925050509392505050565b6000819050919050565b60006200036c620003666200036084620001ae565b62000341565b620001ae565b9050919050565b6000819050919050565b62000388836200034b565b620003a0620003978262000373565b848454620002eb565b825550505050565b600090565b620003b7620003a8565b620003c48184846200037d565b505050565b5b81811015620003ec57620003e0600082620003ad565b600181019050620003ca565b5050565b601f8211156200043b576200040581620002b9565b6200041084620002ce565b8101602085101562000420578190505b620004386200042f85620002ce565b830182620003c9565b50505b505050565b600082821c905092915050565b6000620004606000198460080262000440565b1980831691505092915050565b60006200047b83836200044d565b9150826002028217905092915050565b62000496826200021b565b67ffffffffffffffff811115620004b257620004b162000226565b5b620004be825462000284565b620004cb828285620003f0565b600060209050601f831160018114620005035760008415620004ee578287015190505b620004fa85826200046d565b8655506200056a565b601f1984166200051386620002b9565b60005b828110156200053d5784890151825560018201915060208501945060208101905062000516565b868310156200055d578489015162000559601f8916826200044d565b8355505b6001600288020188555050505b505050505050565b7f4e487b7100000000000000000000000000000000000000000000000000000000600052601160045260246000fd5b6000620005ae82620001ae565b91507fffffffffffffffffffffffffffffffffffffffffffffffffffffffffffffffff8203620005e357620005e262000572565b5b600182019050919050565b610e8580620005fe6000396000f3fe6080604052600436106100915760003560e01c80639d57f250116100595780639d57f250146101365780639dd8aa3914610140578063df251e911461016b578063dfbf53ae14610182578063fcfff16f146101ad57610091565b80630f7e16531461009657806312fa6feb146100ad5780634940bb14146100d857806349c5fccb146100f45780638da5cb5b1461010b575b600080fd5b3480156100a257600080fd5b506100ab6101d8565b005b3480156100b957600080fd5b506100c261026d565b6040516100cf91906108cd565b60405180910390f35b6100f260048036038101906100ed9190610923565b610280565b005b34801561010057600080fd5b50610109610552565b005b34801561011757600080fd5b506101206105e6565b60405161012d9190610991565b60405180910390f35b61013e61060a565b005b34801561014c57600080fd5b506101556106d7565b60405161016291906109bb565b60405180910390f35b34801561017757600080fd5b50610180610781565b005b34801561018e57600080fd5b5061019761083e565b6040516101a491906109bb565b60405180910390f35b3480156101b957600080fd5b506101c2610844565b6040516101cf91906108cd565b60405180910390f35b60008054906101000a900473ffffffffffffffffffffffffffffffffffffffff1673ffffffffffffffffffffffffffffffffffffffff163373ffffffffffffffffffffffffffffffffffffffff161461023057600080fd5b60001515600060159054906101000a900460ff1615151461025057600080fd5b6001600060146101000a81548160ff021916908315150217905550565b600060159054906101000a900460ff1681565b60011515600060149054906101000a900460ff161515146102d6576040517f08c379a00000000000000000000000000000000000000000000000000000000081526004016102cd90610a33565b60405180910390fd5b60038110610319576040517f08c379a000000000000000000000000000000000000000000000000000000000815260040161031090610a9f565b60405180910390fd5b60006003828154811061032f5761032e610abf565b5b90600052602060002090600202016001015411610381576040517f08c379a000000000000000000000000000000000000000000000000000000000815260040161037890610b3a565b60405180910390fd5b600a3410156103c5576040517f08c379a00000000000000000000000000000000000000000000000000000000081526004016103bc90610ba6565b60405180910390fd5b60001515600460003373ffffffffffffffffffffffffffffffffffffffff1673ffffffffffffffffffffffffffffffffffffffff16815260200190815260200160002060009054906101000a900460ff16151514610458576040517f08c379a000000000000000000000000000000000000000000000000000000000815260040161044f90610c12565b60405180910390fd5b60016003828154811061046e5761046d610abf565b5b90600052602060002090600202016001015461048a9190610c61565b6003828154811061049e5761049d610abf565b5b9060005260206000209060020201600101819055506001600460003373ffffffffffffffffffffffffffffffffffffffff1673ffffffffffffffffffffffffffffffffffffffff16815260200190815260200160002060006101000a81548160ff02191690831515021790555080600560003373ffffffffffffffffffffffffffffffffffffffff1673ffffffffffffffffffffffffffffffffffffffff1681526020019081526020016000208190555050565b60008054906101000a900473ffffffffffffffffffffffffffffffffffffffff1673ffffffffffffffffffffffffffffffffffffffff163373ffffffffffffffffffffffffffffffffffffffff16146105aa57600080fd5b60001515600060159054906101000a900460ff161515146105ca57600080fd5b60008060146101000a81548160ff021916908315150217905550565b60008054906101000a900473ffffffffffffffffffffffffffffffffffffffff1681565b600254600560003373ffffffffffffffffffffffffffffffffffffffff1673ffffffffffffffffffffffffffffffffffffffff168152602001908152602001600020541461068d576040517f08c379a000000000000000000000000000000000000000000000000000000000815260040161068490610ce1565b60405180910390fd5b3373ffffffffffffffffffffffffffffffffffffffff166108fc60149081150290604051600060405180830381858888f193505050501580156106d4573d6000803e3d6000fd5b50565b600060011515600460003373ffffffffffffffffffffffffffffffffffffffff1673ffffffffffffffffffffffffffffffffffffffff16815260200190815260200160002060009054906101000a900460ff1615150361077857600560003373ffffffffffffffffffffffffffffffffffffffff1673ffffffffffffffffffffffffffffffffffffffff16815260200190815260200160002054905061077e565b61019490505b90565b60008054906101000a900473ffffffffffffffffffffffffffffffffffffffff1673ffffffffffffffffffffffffffffffffffffffff163373ffffffffffffffffffffffffffffffffffffffff16146107d957600080fd5b60001515600060159054906101000a900460ff161515146107f957600080fd5b610801610857565b60028190555060008060146101000a81548160ff0219169083151502179055506001600060156101000a81548160ff021916908315150217905550565b60025481565b600060149054906101000a900460ff1681565b60006006600081548092919061086c90610d01565b91905055506003423360065460405160200161088a93929190610db2565b6040516020818303038152906040528051906020012060001c6108ad9190610e1e565b905090565b60008115159050919050565b6108c7816108b2565b82525050565b60006020820190506108e260008301846108be565b92915050565b600080fd5b6000819050919050565b610900816108ed565b811461090b57600080fd5b50565b60008135905061091d816108f7565b92915050565b600060208284031215610939576109386108e8565b5b60006109478482850161090e565b91505092915050565b600073ffffffffffffffffffffffffffffffffffffffff82169050919050565b600061097b82610950565b9050919050565b61098b81610970565b82525050565b60006020820190506109a66000830184610982565b92915050565b6109b5816108ed565b82525050565b60006020820190506109d060008301846109ac565b92915050565b600082825260208201905092915050565b7f5468652067616d65206973206f76657200000000000000000000000000000000600082015250565b6000610a1d6010836109d6565b9150610a28826109e7565b602082019050919050565b60006020820190508181036000830152610a4c81610a10565b9050919050565b7f546865207465616d20646f6573206e6f74206578697374000000000000000000600082015250565b6000610a896017836109d6565b9150610a9482610a53565b602082019050919050565b60006020820190508181036000830152610ab881610a7c565b9050919050565b7f4e487b7100000000000000000000000000000000000000000000000000000000600052603260045260246000fd5b7f506c656173652073656c65637420616e6f74686572207465616d000000000000600082015250565b6000610b24601a836109d6565b9150610b2f82610aee565b602082019050919050565b60006020820190508181036000830152610b5381610b17565b9050919050565b7f5468652066756e64206973206e6f742073756666696369656e74000000000000600082015250565b6000610b90601a836109d6565b9150610b9b82610b5a565b602082019050919050565b60006020820190508181036000830152610bbf81610b83565b9050919050565b7f596f752063616e20617474656e646564206f6e63650000000000000000000000600082015250565b6000610bfc6015836109d6565b9150610c0782610bc6565b602082019050919050565b60006020820190508181036000830152610c2b81610bef565b9050919050565b7f4e487b7100000000000000000000000000000000000000000000000000000000600052601160045260246000fd5b6000610c6c826108ed565b9150610c77836108ed565b925082821015610c8a57610c89610c32565b5b828203905092915050565b7f596f7520617265206e6f7420696e2077696e6e6572207465616d000000000000600082015250565b6000610ccb601a836109d6565b9150610cd682610c95565b602082019050919050565b60006020820190508181036000830152610cfa81610cbe565b9050919050565b6000610d0c826108ed565b91507fffffffffffffffffffffffffffffffffffffffffffffffffffffffffffffffff8203610d3e57610d3d610c32565b5b600182019050919050565b6000819050919050565b610d64610d5f826108ed565b610d49565b82525050565b60008160601b9050919050565b6000610d8282610d6a565b9050919050565b6000610d9482610d77565b9050919050565b610dac610da782610970565b610d89565b82525050565b6000610dbe8286610d53565b602082019150610dce8285610d9b565b601482019150610dde8284610d53565b602082019150819050949350505050565b7f4e487b7100000000000000000000000000000000000000000000000000000000600052601260045260246000fd5b6000610e29826108ed565b9150610e34836108ed565b925082610e4457610e43610def565b5b82820690509291505056fea2646970667358221220840d379987a4f0c5e9433444c31ce097ae3f430483cc64359dc9bdaeca59212064736f6c634300080f0033",
  "immutableReferences": {},
  "source": "// SPDX-License-Identifier: MIT\npragma solidity >=0.4.22 <0.9.0;\n\n//Tr chi c cc: owner s to smart contract v to ra 3 i  ngi chi t tin c quy nh s i v s slot t tin ca mi i (ging nhau cho tt c) \n//(vd: 3 i: xanh - 25 slots,  - 25 slots, vng - 25 slots)\n//Ngi chi t tin theo s tin quy nh (10 wei) v chn 1 slot cn trong 1 i bt k, khng th chn i  ht slot\n//Khi owner cng b i chin thng (1 trong cc i) => smart contract update khog cho ngi chi t tin na, nhng thnh vin i  nhn v 20 wei, cn li mt tin\n//Mi ngi ch c t 1 ln cho 1 slot trong cc i\ncontract Gamble {\n    address public owner;   //a ch ch game\n    bool public open = false;  //trng thi ng/m ca cng ng k (ch c th m/ng trc khi cng b kt qu)\n    bool public ended = false; //check khi cng b kt qu, ht game\n    uint private i;     //bin  loop\n    uint public winner; //bin cha i chin thng (set bi owner)\n\n    //struct 1 team\n    struct Team {\n        string name;    //tn i\n        uint slot_left; //s slot cn li\n    }\n\n    //array cha cc team\n    Team[] teams;         \n\n    //Array check xem thnh vin c tham gia cha\n    mapping(address => bool) players;\n\n    //array xem thnh vin ki team no\n    mapping(address => uint) players_team_pair;\n\n\n    //Constructor\n    constructor(uint _slot) public{\n        owner = msg.sender;   //Owner\n        //To 3 team\n        for (i = 0; i < 3; i++){\n            Team memory teamm;\n            teamm.name = \"randomname\";\n            teamm.slot_left = _slot;\n            teams.push(teamm);\n        }\n    }\n\n    //Ng chi k tham gia \n    function Attend(uint team_id) public payable {\n        require(open == true, \"The game is over\"); //check xem tr chi cn m cng ki\n        require(team_id < 3, \"The team does not exist\");    //check ng id team\n        require(teams[team_id].slot_left > 0, \"Please select another team\");    //check  team cn slot\n        require(msg.value >= 10, \"The fund is not sufficient\"); // check tr  tin\n        require(players[msg.sender] == false, \"You can attended once\"); //check tham gia nhiu ln\n\n        //Update ng chi\n        teams[team_id].slot_left = teams[team_id].slot_left - 1;\n        players[msg.sender] = true;\n        players_team_pair[msg.sender] = team_id;\n    }\n\n    function viewTeam() public view returns (uint){\n        if (players[msg.sender] == true) {\n            return players_team_pair[msg.sender];\n        }\n        else {\n            return 404;\n        }\n    }\n\n    //Owner m cng ki khi game cha kt thc\n    function OpenGame() public {\n        require(msg.sender == owner);\n        require(ended == false);\n        open = true;\n    }\n\n    //Owner ng cng ki khi game cha kt thc\n    function CloseGame() public {\n        require(msg.sender == owner);\n        require(ended == false);\n        open = false;\n    }\n\n    //Tr chi kt thc, owner chn i thng (c th i thnh quay random)\n    function EndGame() public {\n        require(msg.sender == owner);\n        require(ended == false); //chi co the chon 1 lan\n\n        winner = randMod();\n        open = false;\n        ended = true;\n    }\n\n    uint randNonce = 0;\n \n    // Defining a function to generate\n    // a random number\n    function randMod() internal returns(uint)\n    {\n        randNonce++; \n        return uint(keccak256(abi.encodePacked(block.timestamp,msg.sender,randNonce))) % 3;\n    }\n\n    //Ng chi i thng rt tin\n    function WithdrawFund() public payable {\n        require(players_team_pair[msg.sender] == winner, \"You are not in winner team\");\n        payable(msg.sender).transfer(20);\n    }\n}",
  "sourcePath": "/Users/tranminhtrung/Desktop/learn_web3/contracts/Gamble.sol",
  "compiler": {
    "name": "solc",
    "version": "0.8.15+commit.e14f2714.Emscripten.clang"
  },
  "schemaVersion": "3.4.8",
  "updatedAt": "2022-10-06T12:07:02.904Z",
  "networkType": "ethereum",
  "devdoc": {
    "kind": "dev",
    "methods": {},
    "version": 1
  },
  "userdoc": {
    "kind": "user",
    "methods": {},
    "version": 1
  }
}