{
  "contractName": "PlanToEarn",
  "abi": [
    {
      "inputs": [
        {
          "internalType": "uint256",
          "name": "_slot",
          "type": "uint256"
        }
      ],
      "stateMutability": "nonpayable",
      "type": "constructor"
    },
    {
      "inputs": [],
      "name": "ended",
      "outputs": [
        {
          "internalType": "bool",
          "name": "",
          "type": "bool"
        }
      ],
      "stateMutability": "view",
      "type": "function"
    },
    {
      "inputs": [],
      "name": "owner",
      "outputs": [
        {
          "internalType": "address",
          "name": "",
          "type": "address"
        }
      ],
      "stateMutability": "view",
      "type": "function"
    },
    {
      "inputs": [],
      "name": "winner",
      "outputs": [
        {
          "internalType": "uint256",
          "name": "",
          "type": "uint256"
        }
      ],
      "stateMutability": "view",
      "type": "function"
    },
    {
      "inputs": [
        {
          "internalType": "uint256",
          "name": "team_id",
          "type": "uint256"
        }
      ],
      "name": "Attend",
      "outputs": [],
      "stateMutability": "payable",
      "type": "function"
    },
    {
      "inputs": [],
      "name": "SelectWinner",
      "outputs": [],
      "stateMutability": "nonpayable",
      "type": "function"
    },
    {
      "inputs": [],
      "name": "EndGame",
      "outputs": [],
      "stateMutability": "nonpayable",
      "type": "function"
    },
    {
      "inputs": [],
      "name": "WithdrawFund",
      "outputs": [],
      "stateMutability": "payable",
      "type": "function"
    },
    {
      "inputs": [
        {
          "internalType": "uint256",
          "name": "team_id",
          "type": "uint256"
        }
      ],
      "name": "TeamsName",
      "outputs": [
        {
          "internalType": "string",
          "name": "",
          "type": "string"
        }
      ],
      "stateMutability": "view",
      "type": "function"
    },
    {
      "inputs": [],
      "name": "viewTeam",
      "outputs": [
        {
          "internalType": "uint256",
          "name": "",
          "type": "uint256"
        }
      ],
      "stateMutability": "view",
      "type": "function"
    },
    {
      "inputs": [
        {
          "internalType": "uint256",
          "name": "team_id",
          "type": "uint256"
        }
      ],
      "name": "ViewSlotLeft",
      "outputs": [
        {
          "internalType": "uint256",
          "name": "",
          "type": "uint256"
        }
      ],
      "stateMutability": "view",
      "type": "function"
    }
  ],
  "bytecode": "0x608060405260008060146101000a81548160ff02191690831515021790555060006006553480156200003057600080fd5b506040516200168a3803806200168a833981810160405281019062000056919062000275565b336000806101000a81548173ffffffffffffffffffffffffffffffffffffffff021916908373ffffffffffffffffffffffffffffffffffffffff160217905550600060405180606001604052806040518060400160405280600581526020017f417369616e00000000000000000000000000000000000000000000000000000081525081526020016040518060400160405280600681526020017f4575726f7065000000000000000000000000000000000000000000000000000081525081526020016040518060400160405280600681526020017f4166726963610000000000000000000000000000000000000000000000000000815250815250905060006001819055505b600360015410156200021357620001736200021b565b81600154600381106200018b576200018a620002a7565b5b602002015181600001819052508281602001818152505060038190806001815401808255809150506001900390600052602060002090600202016000909190919091506000820151816000019081620001e5919062000546565b50602082015181600101555050506001600081548092919062000208906200065c565b91905055506200015d565b5050620006a9565b604051806040016040528060608152602001600081525090565b600080fd5b6000819050919050565b6200024f816200023a565b81146200025b57600080fd5b50565b6000815190506200026f8162000244565b92915050565b6000602082840312156200028e576200028d62000235565b5b60006200029e848285016200025e565b91505092915050565b7f4e487b7100000000000000000000000000000000000000000000000000000000600052603260045260246000fd5b600081519050919050565b7f4e487b7100000000000000000000000000000000000000000000000000000000600052604160045260246000fd5b7f4e487b7100000000000000000000000000000000000000000000000000000000600052602260045260246000fd5b600060028204905060018216806200035857607f821691505b6020821081036200036e576200036d62000310565b5b50919050565b60008190508160005260206000209050919050565b60006020601f8301049050919050565b600082821b905092915050565b600060088302620003d87fffffffffffffffffffffffffffffffffffffffffffffffffffffffffffffffff8262000399565b620003e4868362000399565b95508019841693508086168417925050509392505050565b6000819050919050565b600062000427620004216200041b846200023a565b620003fc565b6200023a565b9050919050565b6000819050919050565b620004438362000406565b6200045b62000452826200042e565b848454620003a6565b825550505050565b600090565b6200047262000463565b6200047f81848462000438565b505050565b5b81811015620004a7576200049b60008262000468565b60018101905062000485565b5050565b601f821115620004f657620004c08162000374565b620004cb8462000389565b81016020851015620004db578190505b620004f3620004ea8562000389565b83018262000484565b50505b505050565b600082821c905092915050565b60006200051b60001984600802620004fb565b1980831691505092915050565b600062000536838362000508565b9150826002028217905092915050565b6200055182620002d6565b67ffffffffffffffff8111156200056d576200056c620002e1565b5b6200057982546200033f565b62000586828285620004ab565b600060209050601f831160018114620005be5760008415620005a9578287015190505b620005b5858262000528565b86555062000625565b601f198416620005ce8662000374565b60005b82811015620005f857848901518255600182019150602085019450602081019050620005d1565b8683101562000618578489015162000614601f89168262000508565b8355505b6001600288020188555050505b505050505050565b7f4e487b7100000000000000000000000000000000000000000000000000000000600052601160045260246000fd5b600062000669826200023a565b91507fffffffffffffffffffffffffffffffffffffffffffffffffffffffffffffffff82036200069e576200069d6200062d565b5b600182019050919050565b610fd180620006b96000396000f3fe6080604052600436106100915760003560e01c80639dd8aa39116100595780639dd8aa391461014f578063b5ee39371461017a578063bee09890146101b7578063df251e91146101ce578063dfbf53ae146101e557610091565b806312fa6feb1461009657806321759ca0146100c15780634940bb14146100fe5780638da5cb5b1461011a5780639d57f25014610145575b600080fd5b3480156100a257600080fd5b506100ab610210565b6040516100b8919061090f565b60405180910390f35b3480156100cd57600080fd5b506100e860048036038101906100e39190610965565b610223565b6040516100f591906109a1565b60405180910390f35b61011860048036038101906101139190610965565b610252565b005b34801561012657600080fd5b5061012f610524565b60405161013c91906109fd565b60405180910390f35b61014d610548565b005b34801561015b57600080fd5b50610164610615565b60405161017191906109a1565b60405180910390f35b34801561018657600080fd5b506101a1600480360381019061019c9190610965565b6106bf565b6040516101ae9190610ab1565b60405180910390f35b3480156101c357600080fd5b506101cc610776565b005b3480156101da57600080fd5b506101e36107fe565b005b3480156101f157600080fd5b506101fa610893565b60405161020791906109a1565b60405180910390f35b600060149054906101000a900460ff1681565b60006003828154811061023957610238610ad3565b5b9060005260206000209060020201600101549050919050565b60001515600060149054906101000a900460ff161515146102a8576040517f08c379a000000000000000000000000000000000000000000000000000000000815260040161029f90610b4e565b60405180910390fd5b600381106102eb576040517f08c379a00000000000000000000000000000000000000000000000000000000081526004016102e290610bba565b60405180910390fd5b60006003828154811061030157610300610ad3565b5b90600052602060002090600202016001015411610353576040517f08c379a000000000000000000000000000000000000000000000000000000000815260040161034a90610c26565b60405180910390fd5b600a341015610397576040517f08c379a000000000000000000000000000000000000000000000000000000000815260040161038e90610c92565b60405180910390fd5b60001515600460003373ffffffffffffffffffffffffffffffffffffffff1673ffffffffffffffffffffffffffffffffffffffff16815260200190815260200160002060009054906101000a900460ff1615151461042a576040517f08c379a000000000000000000000000000000000000000000000000000000000815260040161042190610cfe565b60405180910390fd5b6001600382815481106104405761043f610ad3565b5b90600052602060002090600202016001015461045c9190610d4d565b600382815481106104705761046f610ad3565b5b9060005260206000209060020201600101819055506001600460003373ffffffffffffffffffffffffffffffffffffffff1673ffffffffffffffffffffffffffffffffffffffff16815260200190815260200160002060006101000a81548160ff02191690831515021790555080600560003373ffffffffffffffffffffffffffffffffffffffff1673ffffffffffffffffffffffffffffffffffffffff1681526020019081526020016000208190555050565b60008054906101000a900473ffffffffffffffffffffffffffffffffffffffff1681565b600254600560003373ffffffffffffffffffffffffffffffffffffffff1673ffffffffffffffffffffffffffffffffffffffff16815260200190815260200160002054146105cb576040517f08c379a00000000000000000000000000000000000000000000000000000000081526004016105c290610dcd565b60405180910390fd5b3373ffffffffffffffffffffffffffffffffffffffff166108fc600f9081150290604051600060405180830381858888f19350505050158015610612573d6000803e3d6000fd5b50565b600060011515600460003373ffffffffffffffffffffffffffffffffffffffff1673ffffffffffffffffffffffffffffffffffffffff16815260200190815260200160002060009054906101000a900460ff161515036106b657600560003373ffffffffffffffffffffffffffffffffffffffff1673ffffffffffffffffffffffffffffffffffffffff1681526020019081526020016000205490506106bc565b61019490505b90565b6060600382815481106106d5576106d4610ad3565b5b906000526020600020906002020160000180546106f190610e1c565b80601f016020809104026020016040519081016040528092919081815260200182805461071d90610e1c565b801561076a5780601f1061073f5761010080835404028352916020019161076a565b820191906000526020600020905b81548152906001019060200180831161074d57829003601f168201915b50505050509050919050565b60008054906101000a900473ffffffffffffffffffffffffffffffffffffffff1673ffffffffffffffffffffffffffffffffffffffff163373ffffffffffffffffffffffffffffffffffffffff16146107ce57600080fd5b60011515600060149054906101000a900460ff161515146107ee57600080fd5b6107f6610899565b600281905550565b60008054906101000a900473ffffffffffffffffffffffffffffffffffffffff1673ffffffffffffffffffffffffffffffffffffffff163373ffffffffffffffffffffffffffffffffffffffff161461085657600080fd5b60001515600060149054906101000a900460ff1615151461087657600080fd5b6001600060146101000a81548160ff021916908315150217905550565b60025481565b6000600660008154809291906108ae90610e4d565b9190505550600342336006546040516020016108cc93929190610efe565b6040516020818303038152906040528051906020012060001c6108ef9190610f6a565b905090565b60008115159050919050565b610909816108f4565b82525050565b60006020820190506109246000830184610900565b92915050565b600080fd5b6000819050919050565b6109428161092f565b811461094d57600080fd5b50565b60008135905061095f81610939565b92915050565b60006020828403121561097b5761097a61092a565b5b600061098984828501610950565b91505092915050565b61099b8161092f565b82525050565b60006020820190506109b66000830184610992565b92915050565b600073ffffffffffffffffffffffffffffffffffffffff82169050919050565b60006109e7826109bc565b9050919050565b6109f7816109dc565b82525050565b6000602082019050610a1260008301846109ee565b92915050565b600081519050919050565b600082825260208201905092915050565b60005b83811015610a52578082015181840152602081019050610a37565b83811115610a61576000848401525b50505050565b6000601f19601f8301169050919050565b6000610a8382610a18565b610a8d8185610a23565b9350610a9d818560208601610a34565b610aa681610a67565b840191505092915050565b60006020820190508181036000830152610acb8184610a78565b905092915050565b7f4e487b7100000000000000000000000000000000000000000000000000000000600052603260045260246000fd5b7f5468652067616d65206973206f76657200000000000000000000000000000000600082015250565b6000610b38601083610a23565b9150610b4382610b02565b602082019050919050565b60006020820190508181036000830152610b6781610b2b565b9050919050565b7f546865207465616d20646f6573206e6f74206578697374000000000000000000600082015250565b6000610ba4601783610a23565b9150610baf82610b6e565b602082019050919050565b60006020820190508181036000830152610bd381610b97565b9050919050565b7f506c656173652073656c65637420616e6f74686572207465616d000000000000600082015250565b6000610c10601a83610a23565b9150610c1b82610bda565b602082019050919050565b60006020820190508181036000830152610c3f81610c03565b9050919050565b7f5468652066756e64206973206e6f742073756666696369656e74000000000000600082015250565b6000610c7c601a83610a23565b9150610c8782610c46565b602082019050919050565b60006020820190508181036000830152610cab81610c6f565b9050919050565b7f596f752063616e20617474656e646564206f6e63650000000000000000000000600082015250565b6000610ce8601583610a23565b9150610cf382610cb2565b602082019050919050565b60006020820190508181036000830152610d1781610cdb565b9050919050565b7f4e487b7100000000000000000000000000000000000000000000000000000000600052601160045260246000fd5b6000610d588261092f565b9150610d638361092f565b925082821015610d7657610d75610d1e565b5b828203905092915050565b7f596f7520617265206e6f7420696e2077696e6e6572207465616d000000000000600082015250565b6000610db7601a83610a23565b9150610dc282610d81565b602082019050919050565b60006020820190508181036000830152610de681610daa565b9050919050565b7f4e487b7100000000000000000000000000000000000000000000000000000000600052602260045260246000fd5b60006002820490506001821680610e3457607f821691505b602082108103610e4757610e46610ded565b5b50919050565b6000610e588261092f565b91507fffffffffffffffffffffffffffffffffffffffffffffffffffffffffffffffff8203610e8a57610e89610d1e565b5b600182019050919050565b6000819050919050565b610eb0610eab8261092f565b610e95565b82525050565b60008160601b9050919050565b6000610ece82610eb6565b9050919050565b6000610ee082610ec3565b9050919050565b610ef8610ef3826109dc565b610ed5565b82525050565b6000610f0a8286610e9f565b602082019150610f1a8285610ee7565b601482019150610f2a8284610e9f565b602082019150819050949350505050565b7f4e487b7100000000000000000000000000000000000000000000000000000000600052601260045260246000fd5b6000610f758261092f565b9150610f808361092f565b925082610f9057610f8f610f3b565b5b82820690509291505056fea26469706673582212207d5bbb33fa4df2359923a1a4a78cc61b26926c39a7393a7d73fdbcf7d921635f64736f6c634300080f0033",
  "immutableReferences": {},
  "source": "// SPDX-License-Identifier: MIT\npragma solidity >=0.4.22 <0.9.0;\n\ncontract PlanToEarn {\n    //This instance used to recognize owner address for owner-only activity also used for front-end display \n    address public owner;\n\n    //The boolean variable that controls when the donation is open/close, also used for front-end display \n    bool public ended = false;\n\n    //Variable for later loop setup\n    uint private i;\n\n    //Winner team declaration when receive back data of planting from projects after a year\n    uint public winner;\n    \n    //Struct of information for each projects group that receive donation for planting\n    struct Team {\n        string name;        //project's name   \n        uint slot_left;     //Donation slot left for the project in this campaign\n    }\n\n    //Array that contains 3 selected \n    Team[] teams;         \n\n    //Mapping to check if the address already attended to the donation (true if attended, false if not yet)\n    mapping(address => bool) players;\n\n    //Mapping to map attended player's address to their selected project ID.\n    mapping(address => uint) players_team_pair;\n\n    //Constructor\n    constructor(uint _slot) public{\n        //Set value of owner\n        owner = msg.sender;\n        //Array of project's name (this part will be replaced if appropriate project is found)\n        string[3] memory names = [\"Asian\", \"Europe\", \"Africa\"];\n\n        //Projects (teams) information of name and slot of donation set up\n        for (i = 0; i < 3; i++){\n            Team memory teamm;\n            teamm.name = names[i];\n            teamm.slot_left = _slot;\n            teams.push(teamm);\n        }\n    }\n\n    //Function for attending, taking input of selected id\n    function Attend(uint team_id) external payable {\n        //The function only available in the opening phase (not ended)\n        require(ended == false, \"The game is over\");\n\n        //The team id must be valid (0,1 or 2 since there's only 3 teams)\n        require(team_id < 3, \"The team does not exist\");\n\n        //The donation slot of the project is still not run out\n        require(teams[team_id].slot_left > 0, \"Please select another team\");\n\n        //Minimum amount for donation is 10wei\n        require(msg.value >= 10, \"The fund is not sufficient\");\n\n        //Each account can only attend once\n        require(players[msg.sender] == false, \"You can attended once\");\n\n        //Update the donation slot for project (-1)\n        teams[team_id].slot_left = teams[team_id].slot_left - 1;\n\n        //Update mapping for saving data of user that attended\n        players[msg.sender] = true;\n        players_team_pair[msg.sender] = team_id;\n    }\n\n    //Demonstration function for selecting winner\n    function SelectWinner() external {\n        //Require owner to execute\n        require(msg.sender == owner);\n\n        //require the open phase is over\n        require(ended == true);\n\n        //Random the winner amongsth 3 projects (for demo purpose only, if the project becomes real the winner will be selected differently using analyzed data)\n        winner = randMod();\n    }\n\n    //This function is triggered by owner to end the opening phase\n    function EndGame() external {\n        //Only owner can execute this function (the real version can make it auto trigger in any selected specific date)\n        require(msg.sender == owner);\n\n        //Require the campaign is still in the opening phase\n        require(ended == false);\n\n        //End the opening phase\n        ended = true;\n\n        //Code for funding transaction, but not activate in this demo because there's no existing planting projects wallet so I commented it out\n        //for (i = 0; i < teams.length; i ++){\n        //payable(address of asian planting firm).transfer(ticket price * number of member attended in the team * 0.6);}\n    }\n\n    //Functions for user in winning team withdraw their airdrop, available after the airdroping phase\n    function WithdrawFund() external payable {\n        //Only available when the winner is selected and user in correct winning team \n        require(players_team_pair[msg.sender] == winner, \"You are not in winner team\");\n\n        //Fund transaction for winner (in this demo I put it 15 wei for easy transaction, the correct amount must be totalFund*0.4/(donating member for the project))\n        payable(msg.sender).transfer(15);\n    }\n\n    //Random function for winner randomize\n    uint randNonce = 0;\n    function randMod() internal returns(uint)\n    {\n        randNonce++; \n        return uint(keccak256(abi.encodePacked(block.timestamp,msg.sender,randNonce))) % 3;\n    }\n\n    //Function view the name of project from its ID\n    function TeamsName(uint team_id) external view returns (string memory) {\n        return teams[team_id].name;\n    }\n\n    //View team for attended player\n    function viewTeam() external view returns (uint){\n        if (players[msg.sender] == true) {\n            return players_team_pair[msg.sender];\n        }\n        else {\n            return 404;\n        }\n    }\n\n    //View available slot left for projects with given id\n    function ViewSlotLeft(uint team_id) external view returns (uint) {\n        return teams[team_id].slot_left;\n    }\n}",
  "sourcePath": "/Users/tranminhtrung/Desktop/learn_web3/contracts/Plant.sol",
  "compiler": {
    "name": "solc",
    "version": "0.8.15+commit.e14f2714.Emscripten.clang"
  },
  "schemaVersion": "3.4.8",
  "updatedAt": "2022-10-06T12:03:51.773Z",
  "devdoc": {
    "kind": "dev",
    "methods": {},
    "version": 1
  },
  "userdoc": {
    "kind": "user",
    "methods": {},
    "version": 1
  }
}